{"abi":[{"type":"constructor","inputs":[{"name":"_verifier","type":"address","internalType":"contract HonkVerifier"}],"stateMutability":"nonpayable"},{"type":"function","name":"verifier","inputs":[],"outputs":[{"name":"","type":"address","internalType":"contract HonkVerifier"}],"stateMutability":"view"},{"type":"function","name":"verifyZkJwtProof","inputs":[{"name":"proof","type":"bytes","internalType":"bytes"},{"name":"publicInputs","type":"bytes32[]","internalType":"bytes32[]"}],"outputs":[{"name":"","type":"bool","internalType":"bool"}],"stateMutability":"view"}],"bytecode":{"object":"0x6080604052348015600e575f5ffd5b5060405161035c38038061035c833981016040819052602b91604e565b5f80546001600160a01b0319166001600160a01b03929092169190911790556079565b5f60208284031215605d575f5ffd5b81516001600160a01b03811681146072575f5ffd5b9392505050565b6102d6806100865f395ff3fe608060405234801561000f575f5ffd5b5060043610610034575f3560e01c80632b7ac3f3146100385780639f652bc914610067575b5f5ffd5b5f5461004a906001600160a01b031681565b6040516001600160a01b0390911681526020015b60405180910390f35b61007a610075366004610150565b61008a565b604051901515815260200161005e565b5f8054604051633a94343960e21b815282916001600160a01b03169063ea50d0e4906100c0908990899089908990600401610218565b602060405180830381865afa1580156100db573d5f5f3e3d5ffd5b505050506040513d601f19601f820116820180604052508101906100ff919061027a565b9050806101475760405162461bcd60e51b8152602060048201526012602482015271141c9bdbd9881a5cc81b9bdd081d985b1a5960721b604482015260640160405180910390fd5b95945050505050565b5f5f5f5f60408587031215610163575f5ffd5b843567ffffffffffffffff811115610179575f5ffd5b8501601f81018713610189575f5ffd5b803567ffffffffffffffff81111561019f575f5ffd5b8760208284010111156101b0575f5ffd5b60209182019550935085013567ffffffffffffffff8111156101d0575f5ffd5b8501601f810187136101e0575f5ffd5b803567ffffffffffffffff8111156101f6575f5ffd5b8760208260051b840101111561020a575f5ffd5b949793965060200194505050565b60408152836040820152838560608301375f60608583018101829052601f19601f8701168301838103820160208501529081018490526001600160fb1b03841115610261575f5ffd5b8360051b80866080840137016080019695505050505050565b5f6020828403121561028a575f5ffd5b81518015158114610299575f5ffd5b939250505056fea2646970667358221220c397fa6e0464ccfa8791b0a1d449739bdcc56e210b174fea24e376409489cc7264736f6c634300081c0033","linkReferences":{}},"methodIdentifiers":{"verifier()":"2b7ac3f3","verifyZkJwtProof(bytes,bytes32[])":"9f652bc9"},"id":3}