{"abi":[{"type":"constructor","inputs":[{"name":"_zkJwtProofVerifier","type":"address","internalType":"contract ZkJwtProofVerifier"}],"stateMutability":"nonpayable"},{"type":"function","name":"getPublicInputsOfAllProofs","inputs":[],"outputs":[{"name":"","type":"tuple[]","internalType":"struct DataType.PublicInput[]","components":[{"name":"domain","type":"string","internalType":"string"},{"name":"nullifierHash","type":"bytes32","internalType":"bytes32"},{"name":"createdAt","type":"string","internalType":"string"}]}],"stateMutability":"view"},{"type":"function","name":"getPublicInputsOfZkJwtProof","inputs":[{"name":"nullifierHash","type":"bytes32","internalType":"bytes32"}],"outputs":[{"name":"_publicInput","type":"tuple","internalType":"struct DataType.PublicInput","components":[{"name":"domain","type":"string","internalType":"string"},{"name":"nullifierHash","type":"bytes32","internalType":"bytes32"},{"name":"createdAt","type":"string","internalType":"string"}]}],"stateMutability":"view"},{"type":"function","name":"nullifiers","inputs":[{"name":"nullifierHash","type":"bytes32","internalType":"bytes32"}],"outputs":[{"name":"isNullified","type":"bool","internalType":"bool"}],"stateMutability":"view"},{"type":"function","name":"publicInputsOfAllProofs","inputs":[{"name":"","type":"uint256","internalType":"uint256"}],"outputs":[{"name":"domain","type":"string","internalType":"string"},{"name":"nullifierHash","type":"bytes32","internalType":"bytes32"},{"name":"createdAt","type":"string","internalType":"string"}],"stateMutability":"view"},{"type":"function","name":"publicInputsOfZkJwtProofs","inputs":[{"name":"nullifierHash","type":"bytes32","internalType":"bytes32"}],"outputs":[{"name":"domain","type":"string","internalType":"string"},{"name":"nullifierHash","type":"bytes32","internalType":"bytes32"},{"name":"createdAt","type":"string","internalType":"string"}],"stateMutability":"view"},{"type":"function","name":"recordPublicInputsOfZkJwtProof","inputs":[{"name":"proof","type":"bytes","internalType":"bytes"},{"name":"publicInputs","type":"bytes32[]","internalType":"bytes32[]"},{"name":"separatedPublicInputs","type":"tuple","internalType":"struct DataType.PublicInput","components":[{"name":"domain","type":"string","internalType":"string"},{"name":"nullifierHash","type":"bytes32","internalType":"bytes32"},{"name":"createdAt","type":"string","internalType":"string"}]},{"name":"rsaSignatureLength","type":"uint8","internalType":"uint8"}],"outputs":[{"name":"","type":"bool","internalType":"bool"}],"stateMutability":"nonpayable"},{"type":"function","name":"zkJwtProofVerifier","inputs":[],"outputs":[{"name":"","type":"address","internalType":"contract ZkJwtProofVerifier"}],"stateMutability":"view"}],"bytecode":{"object":"0x6080604052348015600e575f5ffd5b50604051610eab380380610eab833981016040819052602b91604e565b5f80546001600160a01b0319166001600160a01b03929092169190911790556079565b5f60208284031215605d575f5ffd5b81516001600160a01b03811681146072575f5ffd5b9392505050565b610e25806100865f395ff3fe608060405234801561000f575f5ffd5b506004361061007a575f3560e01c806376b848041161005857806376b84804146100f0578063850719231461011a57806387b5bebf1461013a578063f97105521461014d575f5ffd5b80630a0732fc1461007e5780630e3a0679146100a95780632997e86b146100be575b5f5ffd5b61009161008c366004610890565b610160565b6040516100a0939291906108d5565b60405180910390f35b6100b16102a1565b6040516100a09190610949565b6100e06100cc366004610890565b60026020525f908152604090205460ff1681565b60405190151581526020016100a0565b5f54610102906001600160a01b031681565b6040516001600160a01b0390911681526020016100a0565b61012d610128366004610890565b610426565b6040516100a091906109ac565b6100e0610148366004610b5b565b6105f8565b61009161015b366004610890565b610876565b6003818154811061016f575f80fd5b905f5260205f2090600302015f91509050805f01805461018e90610c2f565b80601f01602080910402602001604051908101604052809291908181526020018280546101ba90610c2f565b80156102055780601f106101dc57610100808354040283529160200191610205565b820191905f5260205f20905b8154815290600101906020018083116101e857829003601f168201915b50505050509080600101549080600201805461022090610c2f565b80601f016020809104026020016040519081016040528092919081815260200182805461024c90610c2f565b80156102975780601f1061026e57610100808354040283529160200191610297565b820191905f5260205f20905b81548152906001019060200180831161027a57829003601f168201915b5050505050905083565b60606003805480602002602001604051908101604052809291908181526020015f905b8282101561041d578382905f5260205f2090600302016040518060600160405290815f820180546102f490610c2f565b80601f016020809104026020016040519081016040528092919081815260200182805461032090610c2f565b801561036b5780601f106103425761010080835404028352916020019161036b565b820191905f5260205f20905b81548152906001019060200180831161034e57829003601f168201915b505050505081526020016001820154815260200160028201805461038e90610c2f565b80601f01602080910402602001604051908101604052809291908181526020018280546103ba90610c2f565b80156104055780601f106103dc57610100808354040283529160200191610405565b820191905f5260205f20905b8154815290600101906020018083116103e857829003601f168201915b505050505081525050815260200190600101906102c4565b50505050905090565b6104496040518060600160405280606081526020015f8152602001606081525090565b5f8281526002602052604090205460ff1615156001146104b05760405162461bcd60e51b815260206004820181905260248201527f4120676976656e206e756c6c69666965724861736820697320696e76616c696460448201526064015b60405180910390fd5b5f82815260016020526040908190208151606081019092528054829082906104d790610c2f565b80601f016020809104026020016040519081016040528092919081815260200182805461050390610c2f565b801561054e5780601f106105255761010080835404028352916020019161054e565b820191905f5260205f20905b81548152906001019060200180831161053157829003601f168201915b505050505081526020016001820154815260200160028201805461057190610c2f565b80601f016020809104026020016040519081016040528092919081815260200182805461059d90610c2f565b80156105e85780601f106105bf576101008083540402835291602001916105e8565b820191905f5260205f20905b8154815290600101906020018083116105cb57829003601f168201915b5050505050815250509050919050565b5f8054604051639f652bc960e01b815282916001600160a01b031690639f652bc99061062e908b908b908b908b90600401610c67565b602060405180830381865afa158015610649573d5f5f3e3d5ffd5b505050506040513d601f19601f8201168201806040525081019061066d9190610cc9565b9050806106c65760405162461bcd60e51b815260206004820152602160248201527f4120676976656e205a4b2d4a57542070726f6f66206973206e6f742076616c696044820152601960fa1b60648201526084016104a7565b6106e96040518060600160405280606081526020015f8152602001606081525090565b84518152602080860151818301819052604080880151818501525f9182526001909252208151829190819061071e9082610d34565b50602082015160018201556040820151600282019061073d9082610d34565b5050506020808201515f9081526002909152604090205460ff16156107e35760405162461bcd60e51b815260206004820152605060248201527f4120676976656e206e756c6c69666965724861736820697320616c726561647960448201527f20757365642c207768696368206d65616e73206120676976656e2070726f6f6660648201526f081a5cc8185b1c9958591e481d5cd95960821b608482015260a4016104a7565b6020808201515f908152600290915260408120805460ff191660019081179091556003805491820181559182905282518392919091027fc2575a0e9e593c00f959f8c92f12db2869c3395a3b0502d05e2516446f71f85b019081906108489082610d34565b5060208201516001820155604082015160028201906108679082610d34565b50505050509695505050505050565b60016020525f908152604090208054819061018e90610c2f565b5f602082840312156108a0575f5ffd5b5035919050565b5f81518084528060208401602086015e5f602082860101526020601f19601f83011685010191505092915050565b606081525f6108e760608301866108a7565b84602084015282810360408401526108ff81856108a7565b9695505050505050565b5f81516060845261091d60608501826108a7565b9050602083015160208501526040830151848203604086015261094082826108a7565b95945050505050565b5f602082016020835280845180835260408501915060408160051b8601019250602086015f5b828110156109a057603f1987860301845261098b858351610909565b9450602093840193919091019060010161096f565b50929695505050505050565b602081525f6109be6020830184610909565b9392505050565b5f5f83601f8401126109d5575f5ffd5b50813567ffffffffffffffff8111156109ec575f5ffd5b6020830191508360208260051b8501011115610a06575f5ffd5b9250929050565b634e487b7160e01b5f52604160045260245ffd5b5f82601f830112610a30575f5ffd5b813567ffffffffffffffff811115610a4a57610a4a610a0d565b604051601f8201601f19908116603f0116810167ffffffffffffffff81118282101715610a7957610a79610a0d565b604052818152838201602001851015610a90575f5ffd5b816020850160208301375f918101602001919091529392505050565b5f60608284031215610abc575f5ffd5b6040516060810167ffffffffffffffff81118282101715610adf57610adf610a0d565b604052905080823567ffffffffffffffff811115610afb575f5ffd5b610b0785828601610a21565b82525060208381013590820152604083013567ffffffffffffffff811115610b2d575f5ffd5b610b3985828601610a21565b6040830152505092915050565b803560ff81168114610b56575f5ffd5b919050565b5f5f5f5f5f5f60808789031215610b70575f5ffd5b863567ffffffffffffffff811115610b86575f5ffd5b8701601f81018913610b96575f5ffd5b803567ffffffffffffffff811115610bac575f5ffd5b896020828401011115610bbd575f5ffd5b60209182019750955087013567ffffffffffffffff811115610bdd575f5ffd5b610be989828a016109c5565b909550935050604087013567ffffffffffffffff811115610c08575f5ffd5b610c1489828a01610aac565b925050610c2360608801610b46565b90509295509295509295565b600181811c90821680610c4357607f821691505b602082108103610c6157634e487b7160e01b5f52602260045260245ffd5b50919050565b60408152836040820152838560608301375f60608583018101829052601f19601f8701168301838103820160208501529081018490526001600160fb1b03841115610cb0575f5ffd5b8360051b80866080840137016080019695505050505050565b5f60208284031215610cd9575f5ffd5b815180151581146109be575f5ffd5b601f821115610d2f57805f5260205f20601f840160051c81016020851015610d0d5750805b601f840160051c820191505b81811015610d2c575f8155600101610d19565b50505b505050565b815167ffffffffffffffff811115610d4e57610d4e610a0d565b610d6281610d5c8454610c2f565b84610ce8565b6020601f821160018114610d94575f8315610d7d5750848201515b5f19600385901b1c1916600184901b178455610d2c565b5f84815260208120601f198516915b82811015610dc35787850151825560209485019460019092019101610da3565b5084821015610de057868401515f19600387901b60f8161c191681555b50505050600190811b0190555056fea2646970667358221220427608d4e62830428b79d5d8eed76f5b0bae7c4173de9920054a3cb8f7c12a6b64736f6c634300081c0033","linkReferences":{}},"methodIdentifiers":{"getPublicInputsOfAllProofs()":"0e3a0679","getPublicInputsOfZkJwtProof(bytes32)":"85071923","nullifiers(bytes32)":"2997e86b","publicInputsOfAllProofs(uint256)":"0a0732fc","publicInputsOfZkJwtProofs(bytes32)":"f9710552","recordPublicInputsOfZkJwtProof(bytes,bytes32[],(string,bytes32,string),uint8)":"87b5bebf","zkJwtProofVerifier()":"76b84804"},"id":2}